:100000000C942A000C9447000C9447000C94470071
:100010000C9447000C9447000C9447000C94470044
:100020000C9447000C9447000C9447000C94470034
:100030000C9447000C9447000C9447000C94470024
:100040000C9447000C9447000C9447000C94470014
:100050000C94470011241FBECFE5D8E0DEBFCDBF12
:1000600010E0A0E6B0E0EEE7FBE102C005900D92E3
:10007000AA39B107D9F720E0AAE9B0E001C01D9282
:10008000A03AB207E1F70E9449000C94BD0D0C9410
:100090000000CF93DF93CDB7DEB70E9452000E94DD
:1000A0006300FDCFCF93DF93CDB7DEB70E94D201BF
:1000B0000E94E9060E94CA0380E00E94F805000041
:1000C000DF91CF910895CF93DF93CDB7DEB760E690
:1000D00070E080E00E94A00761E670E081E00E948D
:1000E000A00762E670E082E00E94A00762E370E091
:1000F00080E090E00E947401809160008823C1F448
:100100008091600080939B0060E670E080E00E9438
:10011000A00780916000813009F03FC080919B0072
:100120008823D9F50E94D10081E080939B0035C0DF
:10013000809161008823B9F48091610080939C00D4
:1001400061E670E081E00E94A0078091610081304B
:1001500021F580919C00882301F50E94F90081E03F
:1001600080939C001AC0809162008823B1F4809132
:10017000620080939D0062E670E082E00E94A0072A
:1001800080916200813049F480919D00882329F498
:100190000E94260181E080939D000000DF91CF91B5
:1001A0000895CF93DF93CDB7DEB780919A00833661
:1001B00069F410929A0080919A000E94F80561E01B
:1001C00070E080E090E00E9418030FC060E070E0F3
:1001D00080E090E00E94180380919A008F5F8093E6
:1001E0009A0080919A000E94F8050000DF91CF915B
:1001F0000895CF93DF93CDB7DEB780919A0088231F
:1002000071F483E680939A0060E070E080E090E013
:100210000E94180380919A000E94F80513C08091F3
:100220009A00815080939A0080919A000E94F8056C
:1002300080919A00882331F461E070E080E090E0E2
:100240000E9418030000DF91CF910895CF93DF93B0
:100250000F92CDB7DEB760E070E080E090E00E94E2
:10026000180380919A008983898180939A008091F4
:100270009A000E94F80568EB7BE080E090E00E9425
:10028000740160E670E080E00E94A00761E670E023
:1002900081E00E94A00762E670E082E00E94A00771
:1002A00080916000882341F080916100882321F0D3
:1002B00080916200882319F480E090E011C0898168
:1002C000882351F461E070E080E090E00E94180320
:1002D000000080E090E004C0898181508983C4CF10
:1002E0000F90DF91CF910895CF93DF93CDB7DEB715
:1002F0002C970FB6F894DEBF0FBECDBF69877A8703
:100300008B879C8719821A821B821C821D821E8207
:100310001F82188689859A85AB85BC85892B8A2B97
:100320008B2BB1F119821A821B821C8224C01D8280
:100330001E821F8218860BC08D819E81AF81B88579
:100340000196A11DB11D8D839E83AF83B8878D81DA
:100350009E81AF81B88580359105A105B10560F317
:1003600089819A81AB81BC810196A11DB11D8983D0
:100370009A83AB83BC8349815A816B817C81898557
:100380009A85AB85BC85481759076A077B0778F2C1
:1003900000002C960FB6F894DEBF0FBECDBFDF91E4
:1003A000CF910895CF93DF93CDB7DEB76B970FB69C
:1003B000F894DEBF0FBECDBF1A82198228E1CE01AC
:1003C0000496FC01322F11923A95E9F71B821CC169
:1003D0008B81282F30E0C901880F991F820F931F4E
:1003E000880F991F81599F4FFC0180819181892B32
:1003F000D9F08B81282F30E0C901880F991F820F17
:10040000931F880F991F81599F4FFC018081918113
:10041000019751F082E090E09A83898389819A81E3
:10042000892B09F4EEC0F4C08B81282F30E0C9017C
:10043000880F991F820F931F880F991F8F589F4F06
:10044000FC01808191810197D9F08B81282F30E0C8
:10045000C901880F991F820F931F880F991F8F580A
:100460009F4FFC0180819181892B51F083E090E0C6
:100470009A83898389819A81892B09F4C2C0C8C073
:100480008B81282F30E0C901880F991F820F931F9D
:10049000880F991F9E012F5F3F4F820F931F079672
:1004A00021E030E0FC01318320838B81482F50E034
:1004B0008B81282F30E0CA01880F991F840F951F68
:1004C000880F991F83599F4FFC0140815181C901B9
:1004D000880F991F820F931F880F991F9E012F5F0E
:1004E0003F4F820F931F0396FC01518340838B8102
:1004F000282F30E0C901880F991F820F931F880FA2
:10050000991F81599F4FFC0180819181009719F0BB
:100510000197E1F176C08B81282F30E0C901880F67
:10052000991F820F931F880F991F8F589F4FFC01AF
:10053000808191810197B1F48B81282F30E0C9012E
:10054000880F991F820F931F880F991F9E012F5F9D
:100550003F4F820F931F059621E030E0FC0131836D
:1005600020834FC08B81282F30E0C901880F991F4D
:10057000820F931F880F991F9E012F5F3F4F820F9D
:10058000931F0596FC01118210823BC08B81282F9E
:1005900030E0C901880F991F820F931F880F991FA0
:1005A0008F589F4FFC01808191810197A1F48B812D
:1005B000282F30E0C901880F991F820F931F880FE1
:1005C000991F9E012F5F3F4F820F931F0596FC01DD
:1005D0001182108215C08B81282F30E0C901880F4D
:1005E000991F820F931F880F991F9E012F5F3F4F06
:1005F000820F931F059621E030E0FC0131832083B8
:1006000000008B818F5F8B838B81843008F4E0CE78
:10061000CE01049664E00E94330B89819A816B9627
:100620000FB6F894DEBF0FBECDBFDF91CF91089516
:10063000CF93DF93CDB7DEB728970FB6F894DEBF20
:100640000FBECDBF9E838D8378876F831B821C82F4
:100650001A8219828D819E81059728F084E090E0AE
:100660009A8389833DC08F819885019749F08F8156
:100670009885892B29F083E090E09A83898330C0A4
:100680002D813E81C901880F991F820F931F880F0A
:10069000991F83599F4FFC01808191819695879581
:1006A00096958795969587958B832D813E81C90177
:1006B000880F991F820F931F880F991F83599F4F8F
:1006C000FC018081918187708C838C81282F30E0A0
:1006D0008B81882F90E04F815885B9010E94F907DE
:1006E00089819A8128960FB6F894DEBF0FBECDBFE0
:1006F000DF91CF910895CF93DF9300D000D000D049
:10070000CDB7DEB79E838D831B821C821A8219822D
:100710008D819E81059728F084E090E09A838983FB
:100720002EC02D813E81C901880F991F820F931F12
:10073000880F991F83599F4FFC0180819181969565
:10074000879596958795969587958B832D813E8184
:10075000C901880F991F820F931F880F991F835912
:100760009F4FFC018081918187708C838C81282F21
:1007700030E08B81882F90E0B9010E944B0A89817B
:100780009A8126960FB6F894DEBF0FBECDBFDF91DB
:10079000CF910895CF93DF93CDB7DEB7CC55D10974
:1007A0000FB6F894DEBF0FBECDBF1A82198224E5C2
:1007B000CE010996FC01322F11923A95E9F78EE0AD
:1007C00088871B8298C18B81882F90E0880F991FA2
:1007D000880F991F8B579F4FFC0180819181892B36
:1007E00099F08B81882F90E0880F991F880F991FAF
:1007F0008B579F4FFC0180819181019729F082E006
:1008000090E09A8389837BC18B81882F90E0880F49
:10081000991F880F991F89579F4FFC0180819181F3
:10082000049728F083E090E09A83898368C18B81E4
:10083000882F90E0880F991F880F991F89579F4F25
:10084000FC01808191818330910509F4FEC08430E0
:10085000910508F04CC18230910509F4A4C08330A1
:10086000910508F044C1009721F0019709F449C0AF
:100870003EC11C8241C08C81282F30E08C81482FE2
:1008800050E0C901880F991F820F931F880F991F8D
:100890009E012F5F3F4F820F931F0896FC015183EB
:1008A00040838C81282F30E0C901880F991F820F67
:1008B000931F880F991F9E012F5F3F4F820F931F39
:1008C0000C9621E030E0FC01318320838C81282FBD
:1008D00030E0C901880F991F820F931F880F991F5D
:1008E0009E012F5F3F4F820F931F0A96FC011182DA
:1008F00010828C818F5F8C838C81873008F4BBCF12
:10090000F7C088E08D834AC08D81882F90E09C01DC
:10091000215031098D81482F50E0C901880F991F5E
:10092000820F931F880F991F9E012F5F3F4F820FE9
:10093000931F0896FC01518340838D81882F90E09E
:100940009C0121503109C901880F991F820F931F03
:10095000880F991F9E012F5F3F4F820F931F0C96A8
:1009600021E030E0FC01318320838D81882F90E0ED
:100970009C0121503109C901880F991F820F931FD3
:10098000880F991F9E012F5F3F4F820F931F0A967A
:10099000FC01118210828D818F5F8D838D818F305C
:1009A00008F4B2CFA5C080E18E834AC08E81882F23
:1009B00090E09C01205131098E81482F50E0C901FF
:1009C000880F991F820F931F880F991F9E012F5F19
:1009D0003F4F820F931F0896FC01518340838E8105
:1009E000882F90E09C0120513109C901880F991F7F
:1009F000820F931F880F991F9E012F5F3F4F820F19
:100A0000931F0C9621E030E0FC01318320838E811E
:100A1000882F90E09C0120513109C901880F991F4E
:100A2000820F931F880F991F9E012F5F3F4F820FE8
:100A3000931F0A96FC01118210828E818F5F8E8334
:100A40008E81873108F4B2CF53C088E18F834AC0CA
:100A50008F81882F90E09C01215131098F81482F8F
:100A600050E0C901880F991F820F931F880F991FAB
:100A70009E012F5F3F4F820F931F0896FC01518309
:100A800040838F81882F90E09C0121513109C90159
:100A9000880F991F820F931F880F991F9E012F5F48
:100AA0003F4F820F931F0C9621E030E0FC01318311
:100AB00020838F81882F90E09C0121513109C90149
:100AC000880F991F820F931F880F991F9E012F5F18
:100AD0003F4F820F931F0A96FC01118210828F8173
:100AE0008F5F8F838F818F3108F4B2CF01C00000F8
:100AF0008B818F5F8B838B81823008F464CECE0133
:100B0000099668850E94330B89819A81C45ADF4F08
:100B10000FB6F894DEBF0FBECDBFDF91CF91089521
:100B2000CF93DF9300D000D00F92CDB7DEB78C8388
:100B30006D831A8219821B828C81833028F081E0B8
:100B400090E09A8389834AC08D81843628F084E0BE
:100B500090E09A83898342C08C81882F90E0880F2F
:100B6000991F880F991F8B579F4FFC01808191819E
:100B7000009719F00197D1F031C08D81882F90E056
:100B80008D599F4FFC01808180958B838C81882FAC
:100B900090E0880F991F880F991F89579F4FFC017C
:100BA000808191816B810E94DE0A18C08D81882F1F
:100BB00090E08D599F4FFC0180818B838C81882F21
:100BC00090E0880F991F880F991F89579F4FFC014C
:100BD000808191816B810E94DE0A000089819A8167
:100BE0000F900F900F900F900F90DF91CF9108957D
:100BF000CF93DF9300D000D000D00F92CDB7DEB7F7
:100C00008F831A8219821C821D821E828F818436F4
:100C100028F084E090E09A838983D0C09F818DEC96
:100C2000989F812D1124282F269526952695822F71
:100C3000880F880F820F880F292F281B822F8D8302
:100C40009F818DEC989F812D1124869586958695A0
:100C50008E831B82AFC08B81882309F052C08B81A9
:100C6000882F90E0880F991F880F991F8B579F4FEF
:100C7000FC0180819181009719F0019719F197C0CB
:100C80008E81882F90E08D599F4FFC018081809547
:100C90008C838E81882F90E08D599F4FFC0180813D
:100CA000282F20958B81882F90E0880F991F880F1F
:100CB000991F89579F4FFC0180819181622F0E946B
:100CC000DE0A75C08E81882F90E08D599F4FFC0100
:100CD00080818C838E81882F90E08D599F4FFC01FD
:100CE00020818B81882F90E0880F991F880F991F92
:100CF00089579F4FFC0180819181622F0E94DE0AFB
:100D000056C08B81813009F052C08B81882F90E0D2
:100D1000880F991F880F991F8B579F4FFC01808167
:100D20009181009719F0019719F141C08D81882FA9
:100D300090E08D599F4FFC01808180958C838D813F
:100D4000882F90E08D599F4FFC018081282F20959E
:100D50008B81882F90E0880F991F880F991F8957E2
:100D60009F4FFC0180819181622F0E94DE0A1FC08B
:100D70008D81882F90E08D599F4FFC0180818C835D
:100D80008D81882F90E08D599F4FFC0120818B81B0
:100D9000882F90E0880F991F880F991F89579F4FC0
:100DA000FC0180819181622F0E94DE0A00008B810C
:100DB0008F5F8B838B81823008F44DCF89819A813C
:100DC00027960FB6F894DEBF0FBECDBFDF91CF914F
:100DD0000895CF93DF93CDB7DEB765970FB6F8943C
:100DE000DEBF0FBECDBF1A82198222E1CE0104966A
:100DF000FC01322F11923A95E9F71B828DC08B814D
:100E0000882F90E0880F991F880F991F81579F4F57
:100E1000FC0180819181892B99F08B81882F90E052
:100E2000880F991F880F991F81579F4FFC01808160
:100E30009181019729F082E090E09A83898370C0C4
:100E40008B81282F30E0C901880F991F820F931FD3
:100E5000880F991F9E012F5F3F4F820F931F0796A8
:100E6000FC01118210828B81882F90E02B81222F30
:100E700030E0880F991F880F991F83579F4FFC01FF
:100E800040815181C901880F991F820F931F880FDC
:100E9000991F9E012F5F3F4F820F931F0396FC0106
:100EA000518340838B81882F90E0880F991F880F92
:100EB000991F81579F4FFC0180819181892BB1F44B
:100EC0008B81282F30E0C901880F991F820F931F53
:100ED000880F991F9E012F5F3F4F820F931F05962A
:100EE00021E030E0FC013183208313C08B81282F67
:100EF00030E0C901880F991F820F931F880F991F37
:100F00009E012F5F3F4F820F931F0596FC011182B8
:100F100010828B818F5F8B838B81833008F46FCF3E
:100F2000CE01049663E00E94330B89819A81659615
:100F30000FB6F894DEBF0FBECDBFDF91CF910895FD
:100F4000CF93DF9300D000D000D00F92CDB7DEB7A3
:100F50008D837F836E831A8219828D81843020F085
:100F600083E090E09A8389838D81882F90E0880FB9
:100F7000991F880F991F83579F4FFC018081918192
:100F80009695879596958795969587958B838D8170
:100F9000882F90E0880F991F880F991F83579F4FC4
:100FA000FC018081918187708C838D81882F90E0F6
:100FB000880F991F880F991F81579F4FFC018081CF
:100FC0009181892B59F48C81282F30E08B81882FD7
:100FD00090E04E815F81B9010E94AA0989819A81BE
:100FE00027960FB6F894DEBF0FBECDBFDF91CF912D
:100FF0000895CF93DF93CDB7DEB728970FB6F89457
:10100000DEBF0FBECDBF9C838B837E836D835887ED
:101010004F831A8219828B819C81049728F084E087
:1010200090E09A838983F5C08D819E81089728F08E
:1010300085E090E09A838983ECC08F819885029740
:1010400028F086E090E09A838983E3C08F819885B9
:10105000892B09F46FC08F819885019709F0D8C05A
:101060008B819C81039709F450C08B819C810497EC
:1010700008F05EC08B819C810297A1F18B819C81DD
:10108000039708F055C08B819C81892B29F08B81B7
:101090009C810197A1F04CC08BE390E0FC01808122
:1010A000282F81E090E00D8002C0880F991F0A94DC
:1010B000E2F7282B8BE390E0FC0120833AC088E321
:1010C00090E0FC018081282F81E090E00D8002C03B
:1010D000880F991F0A94E2F7282B88E390E0FC011F
:1010E000208327C085E390E0FC018081282F81E0E8
:1010F00090E00D8002C0880F991F0A94E2F7282B18
:1011000085E390E0FC01208314C082E390E0FC01C1
:101110008081282F81E090E00D8002C0880F991F08
:101120000A94E2F7282B82E390E0FC01208301C0BF
:1011300000006FC08B819C81039709F453C08B81A1
:101140009C81049708F062C08B819C810297B1F169
:101150008B819C81039708F059C08B819C81892BDE
:1011600029F08B819C810197A9F050C08BE390E01E
:10117000FC018081282F81E090E00D8002C0880F63
:10118000991F0A94E2F7809528238BE390E0FC01F5
:1011900020833DC088E390E0FC018081282F81E01E
:1011A00090E00D8002C0880F991F0A94E2F78095A5
:1011B000282388E390E0FC01208329C085E390E0A8
:1011C000FC018081282F81E090E00D8002C0880F13
:1011D000991F0A94E2F78095282385E390E0FC01AB
:1011E000208315C082E390E0FC018081282F81E0FC
:1011F00090E00D8002C0880F991F0A94E2F7809555
:10120000282382E390E0FC01208301C0000001C09C
:10121000000089819A8128960FB6F894DEBF0FBE30
:10122000CDBFDF91CF910895CF93DF9300D000D051
:1012300000D0CDB7DEB79C838B837E836D831A820B
:1012400019828B819C81049728F084E090E09A8336
:10125000898375C08D819E81029728F086E090E099
:101260009A8389836CC08D819E81892BC1F18D8188
:101270009E81019709F062C08B819C81039739F1AF
:101280008B819C81049748F58B819C810297C9F0E2
:101290008B819C81039708F58B819C81892B29F098
:1012A0008B819C81019739F018C08BE390E02FEF80
:1012B000FC01208313C088E390E02FEFFC01208322
:1012C0000DC085E390E02FEFFC01208307C082E38F
:1012D00090E02FEFFC01208301C0000030C08B8123
:1012E0009C81039721F18B819C81049728F58B8148
:1012F0009C810297B9F08B819C810397E8F48B81E4
:101300009C81892B29F08B819C81019731F014C03D
:101310008BE390E0FC01108210C088E390E0FC01B8
:1013200010820BC085E390E0FC01108206C082E3CE
:1013300090E0FC01108201C0000001C00000898122
:101340009A8126960FB6F894DEBF0FBECDBFDF910F
:10135000CF910895CF93DF93CDB7DEB728970FB61F
:10136000F894DEBF0FBECDBF9C838B837E836D83DD
:1013700058874F831A8219828B819C81049728F0A9
:1013800084E090E09A8389837BC08D819E81089759
:1013900028F085E090E09A83898372C08F819885D8
:1013A000892B29F483E090E09A83898369C08B813B
:1013B0009C81039709F450C08B819C81049708F0AD
:1013C0005EC08B819C810297A1F18B819C810397E8
:1013D00008F055C08B819C81892B29F08B819C81E1
:1013E0000197A1F04CC089E390E0FC018081882F37
:1013F00090E00D8002C0959587950A94E2F7282F1A
:1014000021708F819885FC0120833AC086E390E0AB
:10141000FC018081882F90E00D8002C09595879512
:101420000A94E2F7282F21708F819885FC01208390
:1014300027C083E390E0FC018081882F90E00D803D
:1014400002C0959587950A94E2F7282F21708F8125
:101450009885FC01208314C080E390E0FC0180812A
:10146000882F90E00D8002C0959587950A94E2F749
:10147000282F21708F819885FC01208301C00000F6
:1014800089819A8128960FB6F894DEBF0FBECDBF32
:10149000DF91CF910895CF93DF9300D000D000D09B
:1014A000CDB7DEB79C838B837E836D831A821982CE
:1014B0008B819C81049728F084E090E09A83898353
:1014C00072C08D819E81089728F085E090E09A8314
:1014D000898369C08B819C81039709F450C08B81FB
:1014E0009C81049708F05EC08B819C810297A1F1DA
:1014F0008B819C81039708F055C08B819C81892B3F
:1015000029F08B819C810197A1F04CC08BE390E086
:10151000FC018081282F81E090E00D8002C0880FBF
:10152000991F0A94E2F728278BE390E0FC012083BF
:101530003AC088E390E0FC018081282F81E090E0B0
:101540000D8002C0880F991F0A94E2F7282788E3CC
:1015500090E0FC01208327C085E390E0FC018081BE
:10156000282F81E090E00D8002C0880F991F0A9417
:10157000E2F7282785E390E0FC01208314C082E392
:1015800090E0FC018081282F81E090E00D8002C076
:10159000880F991F0A94E2F7282782E390E0FC0164
:1015A000208301C0000089819A8126960FB6F894A5
:1015B000DEBF0FBECDBFDF91CF910895CF93DF93F4
:1015C00000D000D00F92CDB7DEB79C838B836D83A4
:1015D00081E090E09A8389838B819C81049728F035
:1015E00084E090E09A83898334C08B819C81039747
:1015F00039F18B819C81049748F58B819C810297FE
:10160000C9F08B819C81039708F58B819C81892B84
:1016100029F08B819C81019739F018C08BE390E011
:101620002D81FC01208313C088E390E02D81FC0113
:1016300020830DC085E390E02D81FC01208307C04D
:1016400082E390E02D81FC01208301C000001A821A
:10165000198289819A810F900F900F900F900F90AF
:10166000DF91CF910895CF93DF9300D000D000D0C9
:10167000CDB7DEB79D838C836E8319826EC289815C
:10168000282F30E0C901880F991F820F931F880F00
:10169000991F9C018C819D81820F931FFC01808189
:1016A00091819695879596958795969587958A8346
:1016B0008981282F30E0C901880F991F820F931F5D
:1016C000880F991F9C018C819D81820F931FFC01C3
:1016D0008081918187708B838A81882F90E083300D
:1016E000910509F4ADC1843091050CF032C282300D
:1016F000910509F41CC1833091050CF02AC20097B2
:1017000021F0019709F48AC024C28981282F30E092
:10171000C901880F991F820F931F880F991F9C0181
:101720008C819D81820F931FFC018481958100979C
:10173000C1F0019769F58AE390E0FC018081482FB0
:101740008B81282F30E081E090E002C0880F991F44
:101750002A95E2F7242F282B8AE390E0FC012083CE
:1017600018C08AE390E0FC018081482F8B81282FEC
:1017700030E081E090E002C0880F991F2A95E2F7DF
:101780008095242F28238AE390E0FC01208301C068
:1017900000008981282F30E0C901880F991F820F2E
:1017A000931F880F991F9C018C819D81820F931F2D
:1017B000FC0182819381009719F00197C1F02DC03F
:1017C0008BE390E0FC018081482F8B81282F30E053
:1017D00081E090E002C0880F991F2A95E2F780957A
:1017E000242F28238BE390E0FC01208316C08BE399
:1017F00090E0FC018081482F8B81282F30E081E030
:1018000090E002C0880F991F2A95E2F7242F282B19
:101810008BE390E0FC01208300009CC18981282F8C
:1018200030E0C901880F991F820F931F880F991FFD
:101830009C018C819D81820F931FFC018481958185
:101840000097C1F0019769F587E390E0FC01808182
:10185000482F8B81282F30E081E090E002C0880F74
:10186000991F2A95E2F7242F282B87E390E0FC01AB
:10187000208318C087E390E0FC018081482F8B8192
:10188000282F30E081E090E002C0880F991F2A9550
:10189000E2F78095242F282387E390E0FC01208342
:1018A00001C000008981282F30E0C901880F991FED
:1018B000820F931F880F991F9C018C819D81820F3D
:1018C000931FFC0182819381009719F00197C1F069
:1018D0002DC088E390E0FC018081482F8B81282F68
:1018E00030E081E090E002C0880F991F2A95E2F76E
:1018F0008095242F282388E390E0FC01208316C0E4
:1019000088E390E0FC018081482F8B81282F30E014
:1019100081E090E002C0880F991F2A95E2F7242FFA
:10192000282B88E390E0FC012083000013C189810B
:10193000282F30E0C901880F991F820F931F880F4D
:10194000991F9C018C819D81820F931FFC018481D2
:1019500095810097C1F0019769F584E390E0FC015F
:101960008081482F8B81282F30E081E090E002C0F9
:10197000880F991F2A95E2F7242F282B84E390E003
:10198000FC01208318C084E390E0FC018081482F93
:101990008B81282F30E081E090E002C0880F991FF2
:1019A0002A95E2F78095242F282384E390E0FC0118
:1019B000208301C000008981282F30E0C901880FF1
:1019C000991F820F931F880F991F9C018C819D8105
:1019D000820F931FFC0182819381009719F0019778
:1019E000C1F02DC085E390E0FC018081482F8B8100
:1019F000282F30E081E090E002C0880F991F2A95DF
:101A0000E2F78095242F282385E390E0FC012083D2
:101A100016C085E390E0FC018081482F8B81282F40
:101A200030E081E090E002C0880F991F2A95E2F72C
:101A3000242F282B85E390E0FC01208300008AC03E
:101A40008981282F30E0C901880F991F820F931FC9
:101A5000880F991F9C018C819D81820F931FFC012F
:101A6000848195810097C1F0019769F581E390E049
:101A7000FC018081482F8B81282F30E081E090E0AD
:101A800002C0880F991F2A95E2F7242F282B81E3A3
:101A900090E0FC01208318C081E390E0FC0180818C
:101AA000482F8B81282F30E081E090E002C0880F22
:101AB000991F2A95E2F78095242F282381E390E04F
:101AC000FC01208301C000008981282F30E0C9017A
:101AD000880F991F820F931F880F991F9C018C817B
:101AE0009D81820F931FFC0182819381009719F0E1
:101AF0000197C1F02DC082E390E0FC018081482F66
:101B00008B81282F30E081E090E002C0880F991F80
:101B10002A95E2F78095242F282382E390E0FC01A8
:101B2000208316C082E390E0FC018081482F8B81E6
:101B3000282F30E081E090E002C0880F991F2A959D
:101B4000E2F7242F282B82E390E0FC0120830000A1
:101B500001C0000089818F5F898399818E819817E8
:101B600008F48DCD0000000026960FB6F894DEBF75
:0E1B70000FBECDBFDF91CF910895F894FFCF47
:101B7E000303033F065B4F666D7D077F6F0000001A
:101B8E000000000100000000000200000000000341
:101B9E000000000000010002000100030008000028
:0A1BAE0000090000000A000000001A
:00000001FF
